:03000000020421D6
:0C042100787FE4F6D8FD7581580204686D
:1003910012072F751A0CE4F51BF51C753B0CF53C87
:1003A100753D031205E712000E12069EE51E64015B
:1003B1006005E51DB4012385224C85234D85244E1E
:1003C100AB1FAA20A921120261AB22AA23A92412E0
:1003D1000629AB22AA23A9248018850C4C850D4D32
:1003E100850E4EAB0FAA10A9111200FDAB0CAA0D80
:1003F100A90E1204ADE51AB53B16E51BB53C11E596
:100401001CB53D0CE50BB40107C2A7E4F5B0809320
:10041100E53F64E77004E53E64037087D2A78083FB
:10072F00758901758CFC758A18D2AFD2A9D28C222B
:03000B0002066585
:10066500C0E0C0D0758CFC758A180557E557700237
:100675000556053FE53F7002053E0554E5547002F9
:100685000553E53FB4E80DE53EB40308051C753E8A
:0906950000753F00D0D0D0E03226
:10058C00030F00001A0338000008033500003B0875
:10059C00120001020304050607082D0001020304E2
:1005AC0005060708250001020304051111031F00AD
:1005BC000025030C000012032200002D023E000057
:0905CC00010B01011D00011E00DC
:100261008B498A4A894B1201C1AB4CAA4DA94E1246
:100271000207AB49AA4AA94B9000011201DAAB4C23
:10028100AA4DA94E900001120219AB49AA4AA94BE5
:100291009000021201DAAB4CAA4DA94E9000021255
:1002A1000219AB49AA4AA94B9000031201DAAB4CDF
:1002B100AA4DA94E900003120219AB49AA4AA94BB3
:1002C1009000041201DAAB4CAA4DA94E9000041221
:1002D1000219AB49AA4AA94B9000051201DAAB4CAD
:1002E100AA4DA94E90000512021990000674111230
:0A02F10002199000077411020219AF
:100520008B498A4A894BAB4CAA4DA94E90000112C7
:1005300001DA75F00AA4FF1201C12FAB49AA4AA93A
:100540004B900002120219AB4CAA4DA94E90000329
:100550001201DA75F00AA4FF9000021201DA2FAB43
:1005600049AA4AA94B900001120219AB4CAA4DA905
:100570004E9000051201DA75F00AA4FF90000412F3
:0C05800001DA2FAB49AA4AA94B0202077E
:10069E00E51CC3943C4005051BE4F51CE51BC39407
:1006AE003C4005051AE4F51BE51AC394184003E413
:0306BE00F51A2208
:1000FD008B498A4A894B9000021201DA75F00A8405
:10010D00AB4CAA4DA94EE5F0120207AB49AA4AA97C
:10011D004B9000021201DA75F00A84AB4CAA4DA97E
:10012D004E900001120219AB49AA4AA94B90000149
:10013D001201DA75F00A84AB4CAA4DA94E9000025B
:10014D00E5F0120219AB49AA4AA94B900001120120
:10015D00DA75F00A84AB4CAA4DA94E900003120239
:10016D0019AB49AA4AA94B1201C1FF75F00A84AB1C
:10017D004CAA4DA94E900004E5F0120219EF75F04E
:10018D000A849000051202199000067411120219CA
:10019D00E50BB4010EAB4CAA4DA94E9000077401AE
:1001AD00120219E50B700CAB4CAA4DA94E9000072D
:0401BD0012021922EF
:100704003F065B4F666D7D077F6F777C395E79713D
:0A07140080007FBFDFEFF7FBFDFE62
:1005D5000256000001580001520002530000015567
:0105E5000510
:1004AD008B498A4A894BE5576405455670647580BA
:1004BD00FFD2A1E55890071693F580C2A1E55864C7
:1004CD00026005E558B40420D2A0AB49AA4AA94B55
:1004DD008558827583001201DA90070493FF900707
:1004ED0014E493FEEF4E8015D2A0AB49AA4AA94B56
:1004FD008558827583001201DA90070493F580C246
:10050D00A00558E558C394084003E4F558E4F556A2
:03051D00F557226D
:10062900E552B40131C3E55494F4E55394014019FA
:10063900E55494E8E5539403500FAF55EF3395E033
:100649008F82F5837411120219D3E55494E7E553A7
:0C065900940340078000E4F553F55422A0
:1006C100E51E64016005E51DB4011774252555F883
:1006D100A6071555E555B4FF03E4F55575530175A6
:0306E100542C2274
:1006E400E51E64016005E51DB401140555D3E55507
:1006F40064809485400375550575530175542C2207
:10071E00E4F525F526F527F528F529F52A7555056D
:01072E0022A8
:1002FB008B498A4A894BE51D64017041AB4FAA506B
:10030B00A9519000021201DAAB49AA4AA94B9000FD
:10031B0002120219AB4FAA50A9519000011201DA37
:10032B00AB49AA4AA94B900001120219AB4FAA5034
:10033B00A9511201C1AB49AA4AA94B8045E51E64DC
:10034B00017042AB4FAA50A9519000021201DAABD7
:10035B004CAA4DA94E900002120219AB4FAA50A9FC
:10036B00519000011201DAAB4CAA4DA94E9000013D
:10037B00120219AB4FAA50A9511201C1AB4CAA4D95
:06038B00A94E1202072238
:1005E7007590F0AF907E0075900FAD907590FFEF0E
:1005F7004DFFB54122EEB5401E8F47854743E5487D
:10060700B547057546FF8003854746E547B4FF03B1
:10061700854842854748227546FFE4F5448E408F5A
:010627004191
:0106280022AF
:10000E00E54612023B00F97700F67B00F17D00BA5F
:10001E007E009EB7009ABB0096BD0092BE0078D7B8
:10002E000074DB006FDD006ADE0056E70051EB0066
:10003E004CED0047EE000000FC7F070200F37F0846
:10004E000200F37F090200F3E50BB40104E4F50BA3
:10005E0022E50B60030200FC750B01227F040200F7
:10006E00F37F050200F37F06807B755505851F4CD7
:10007E0085204D85214EAB0FAA10A9111200FD75DA
:10008E001E0180247F01805D7F0280597F03805591
:10009E00755505851F4C85204D85214EAB35AA36ED
:1000AE00A9371200FD751D0175520122851F4C8561
:1000BE00204D85214EAB38AA39A93A120520850F5D
:1000CE004C85104D85114E85384F853950853A51E6
:1000DE00AB35AA36A9371202FBE4F51DF51EF55213
:0F00EE00F55522E4FF0206C102071E1206E422A6
:10042D00020391E493A3F8E493A34003F68001F251
:10043D0008DFF48029E493A3F85407240CC8C333D0
:10044D00C4540F4420C8834004F456800146F6DF9F
:10045D00E4800B010204081020408090058CE47E9E
:10046D00019360BCA3FF543F30E509541FFEE49394
:10047D00A360010ECF54C025E060A840B8E493A35B
:10048D00FAE493A3F8E493A3C8C582C8CAC583CA86
:10049D00F0A3C8C582C8CAC583CADFE9DEE780BE3E
:0105E6000014
:1001C100BB010689828A83E0225002E722BBFE023C
:0901D100E32289828A83E493226F
:1001DA00BB010CE58229F582E5833AF583E02250DA
:1001EA0006E92582F8E622BBFE06E92582F8E22224
:0D01FA00E58229F582E5833AF583E493223E
:10020700BB010689828A83F0225002F722BBFE01D6
:02021700F322D0
:10021900F8BB010DE58229F582E5833AF583E8F01B
:10022900225006E92582C8F622BBFE05E92582C8C7
:02023900F222AF
:10023B00D083D082F8E4937012740193700DA3A352
:10024B0093F8740193F5828883E473740293686066
:06025B00EFA3A3A380DF66
:00000001FF
